{
  "_format": "hh-sol-artifact-1",
  "contractName": "OrganDonation",
  "sourceName": "contracts/OrganDonation.sol",
  "abi": [
    {
      "inputs": [],
      "stateMutability": "nonpayable",
      "type": "constructor"
    },
    {
      "anonymous": false,
      "inputs": [
        {
          "indexed": true,
          "internalType": "address",
          "name": "donor",
          "type": "address"
        }
      ],
      "name": "DonorCommitmentRevoked",
      "type": "event"
    },
    {
      "anonymous": false,
      "inputs": [
        {
          "indexed": true,
          "internalType": "address",
          "name": "donor",
          "type": "address"
        }
      ],
      "name": "DonorCommitmentValidated",
      "type": "event"
    },
    {
      "anonymous": false,
      "inputs": [
        {
          "indexed": true,
          "internalType": "address",
          "name": "donor",
          "type": "address"
        }
      ],
      "name": "DonorDeceased",
      "type": "event"
    },
    {
      "anonymous": false,
      "inputs": [
        {
          "indexed": true,
          "internalType": "address",
          "name": "donor",
          "type": "address"
        },
        {
          "indexed": true,
          "internalType": "address",
          "name": "patient",
          "type": "address"
        }
      ],
      "name": "MatchFound",
      "type": "event"
    },
    {
      "anonymous": false,
      "inputs": [
        {
          "indexed": true,
          "internalType": "address",
          "name": "donor",
          "type": "address"
        },
        {
          "indexed": false,
          "internalType": "enum OrganDonation.OrganType[]",
          "name": "organs",
          "type": "uint8[]"
        }
      ],
      "name": "OrganRegistered",
      "type": "event"
    },
    {
      "anonymous": false,
      "inputs": [
        {
          "indexed": true,
          "internalType": "address",
          "name": "user",
          "type": "address"
        }
      ],
      "name": "UserFlagged",
      "type": "event"
    },
    {
      "anonymous": false,
      "inputs": [
        {
          "indexed": true,
          "internalType": "address",
          "name": "user",
          "type": "address"
        }
      ],
      "name": "UserSuspended",
      "type": "event"
    },
    {
      "anonymous": false,
      "inputs": [
        {
          "indexed": true,
          "internalType": "address",
          "name": "user",
          "type": "address"
        },
        {
          "indexed": false,
          "internalType": "enum OrganDonation.Role",
          "name": "role",
          "type": "uint8"
        }
      ],
      "name": "UserVerified",
      "type": "event"
    },
    {
      "inputs": [
        {
          "internalType": "uint256",
          "name": "",
          "type": "uint256"
        }
      ],
      "name": "donorList",
      "outputs": [
        {
          "internalType": "address",
          "name": "",
          "type": "address"
        }
      ],
      "stateMutability": "view",
      "type": "function"
    },
    {
      "inputs": [
        {
          "internalType": "address",
          "name": "",
          "type": "address"
        }
      ],
      "name": "donors",
      "outputs": [
        {
          "internalType": "address",
          "name": "donorAddress",
          "type": "address"
        },
        {
          "internalType": "string",
          "name": "name",
          "type": "string"
        },
        {
          "internalType": "string",
          "name": "bloodType",
          "type": "string"
        },
        {
          "internalType": "string",
          "name": "location",
          "type": "string"
        },
        {
          "internalType": "bool",
          "name": "deceased",
          "type": "bool"
        },
        {
          "internalType": "bool",
          "name": "verified",
          "type": "bool"
        },
        {
          "internalType": "bool",
          "name": "suspended",
          "type": "bool"
        },
        {
          "internalType": "bool",
          "name": "flagged",
          "type": "bool"
        },
        {
          "internalType": "bool",
          "name": "committed",
          "type": "bool"
        },
        {
          "internalType": "string",
          "name": "ipfsHash",
          "type": "string"
        }
      ],
      "stateMutability": "view",
      "type": "function"
    },
    {
      "inputs": [
        {
          "internalType": "address",
          "name": "user",
          "type": "address"
        }
      ],
      "name": "flagUser",
      "outputs": [],
      "stateMutability": "nonpayable",
      "type": "function"
    },
    {
      "inputs": [],
      "name": "getAvailableOrgans",
      "outputs": [
        {
          "components": [
            {
              "internalType": "address",
              "name": "donorAddress",
              "type": "address"
            },
            {
              "internalType": "string",
              "name": "name",
              "type": "string"
            },
            {
              "internalType": "string",
              "name": "bloodType",
              "type": "string"
            },
            {
              "internalType": "enum OrganDonation.OrganType[]",
              "name": "organs",
              "type": "uint8[]"
            },
            {
              "internalType": "string",
              "name": "location",
              "type": "string"
            },
            {
              "internalType": "bool",
              "name": "deceased",
              "type": "bool"
            },
            {
              "internalType": "bool",
              "name": "verified",
              "type": "bool"
            },
            {
              "internalType": "bool",
              "name": "suspended",
              "type": "bool"
            },
            {
              "internalType": "bool",
              "name": "flagged",
              "type": "bool"
            },
            {
              "internalType": "bool",
              "name": "committed",
              "type": "bool"
            },
            {
              "internalType": "string",
              "name": "ipfsHash",
              "type": "string"
            }
          ],
          "internalType": "struct OrganDonation.Donor[]",
          "name": "",
          "type": "tuple[]"
        }
      ],
      "stateMutability": "view",
      "type": "function"
    },
    {
      "inputs": [],
      "name": "getDonorList",
      "outputs": [
        {
          "internalType": "address[]",
          "name": "",
          "type": "address[]"
        }
      ],
      "stateMutability": "view",
      "type": "function"
    },
    {
      "inputs": [
        {
          "internalType": "address",
          "name": "donor",
          "type": "address"
        }
      ],
      "name": "markDonorDeceased",
      "outputs": [],
      "stateMutability": "nonpayable",
      "type": "function"
    },
    {
      "inputs": [
        {
          "internalType": "address",
          "name": "donor",
          "type": "address"
        },
        {
          "internalType": "address",
          "name": "patient",
          "type": "address"
        }
      ],
      "name": "markOrganAsMatched",
      "outputs": [],
      "stateMutability": "nonpayable",
      "type": "function"
    },
    {
      "inputs": [],
      "name": "owner",
      "outputs": [
        {
          "internalType": "address",
          "name": "",
          "type": "address"
        }
      ],
      "stateMutability": "view",
      "type": "function"
    },
    {
      "inputs": [
        {
          "internalType": "uint256",
          "name": "",
          "type": "uint256"
        }
      ],
      "name": "patientList",
      "outputs": [
        {
          "internalType": "address",
          "name": "",
          "type": "address"
        }
      ],
      "stateMutability": "view",
      "type": "function"
    },
    {
      "inputs": [
        {
          "internalType": "address",
          "name": "",
          "type": "address"
        }
      ],
      "name": "patients",
      "outputs": [
        {
          "internalType": "address",
          "name": "patientAddress",
          "type": "address"
        },
        {
          "internalType": "string",
          "name": "name",
          "type": "string"
        },
        {
          "internalType": "string",
          "name": "bloodType",
          "type": "string"
        },
        {
          "internalType": "string",
          "name": "neededOrgan",
          "type": "string"
        },
        {
          "internalType": "string",
          "name": "urgency",
          "type": "string"
        },
        {
          "internalType": "string",
          "name": "location",
          "type": "string"
        },
        {
          "internalType": "bool",
          "name": "verified",
          "type": "bool"
        },
        {
          "internalType": "bool",
          "name": "suspended",
          "type": "bool"
        },
        {
          "internalType": "bool",
          "name": "flagged",
          "type": "bool"
        },
        {
          "internalType": "string",
          "name": "ipfsHash",
          "type": "string"
        }
      ],
      "stateMutability": "view",
      "type": "function"
    },
    {
      "inputs": [
        {
          "internalType": "string",
          "name": "name",
          "type": "string"
        },
        {
          "internalType": "string",
          "name": "bloodType",
          "type": "string"
        },
        {
          "internalType": "enum OrganDonation.OrganType[]",
          "name": "organs",
          "type": "uint8[]"
        },
        {
          "internalType": "string",
          "name": "location",
          "type": "string"
        },
        {
          "internalType": "string",
          "name": "ipfsHash",
          "type": "string"
        }
      ],
      "name": "registerDonor",
      "outputs": [],
      "stateMutability": "nonpayable",
      "type": "function"
    },
    {
      "inputs": [
        {
          "internalType": "string",
          "name": "name",
          "type": "string"
        },
        {
          "internalType": "string",
          "name": "bloodType",
          "type": "string"
        },
        {
          "internalType": "string",
          "name": "neededOrgan",
          "type": "string"
        },
        {
          "internalType": "string",
          "name": "urgency",
          "type": "string"
        },
        {
          "internalType": "string",
          "name": "location",
          "type": "string"
        },
        {
          "internalType": "string",
          "name": "ipfsHash",
          "type": "string"
        }
      ],
      "name": "registerPatient",
      "outputs": [],
      "stateMutability": "nonpayable",
      "type": "function"
    },
    {
      "inputs": [
        {
          "internalType": "address",
          "name": "donor",
          "type": "address"
        }
      ],
      "name": "revokeDonorCommitment",
      "outputs": [],
      "stateMutability": "nonpayable",
      "type": "function"
    },
    {
      "inputs": [
        {
          "internalType": "address",
          "name": "",
          "type": "address"
        }
      ],
      "name": "roles",
      "outputs": [
        {
          "internalType": "enum OrganDonation.Role",
          "name": "",
          "type": "uint8"
        }
      ],
      "stateMutability": "view",
      "type": "function"
    },
    {
      "inputs": [
        {
          "internalType": "address",
          "name": "user",
          "type": "address"
        }
      ],
      "name": "suspendUser",
      "outputs": [],
      "stateMutability": "nonpayable",
      "type": "function"
    },
    {
      "inputs": [
        {
          "internalType": "address",
          "name": "donor",
          "type": "address"
        }
      ],
      "name": "validateDonorCommitment",
      "outputs": [],
      "stateMutability": "nonpayable",
      "type": "function"
    },
    {
      "inputs": [
        {
          "internalType": "address",
          "name": "user",
          "type": "address"
        },
        {
          "internalType": "enum OrganDonation.Role",
          "name": "role",
          "type": "uint8"
        }
      ],
      "name": "verifyUser",
      "outputs": [],
      "stateMutability": "nonpayable",
      "type": "function"
    }
  ],
  "bytecode": "0x60806040523480156200001157600080fd5b50336000806101000a81548173ffffffffffffffffffffffffffffffffffffffff021916908373ffffffffffffffffffffffffffffffffffffffff1602179055506003600160003373ffffffffffffffffffffffffffffffffffffffff1673ffffffffffffffffffffffffffffffffffffffff16815260200190815260200160002060006101000a81548160ff02191690836003811115620000b857620000b7620000c3565b5b0217905550620000f2565b7f4e487b7100000000000000000000000000000000000000000000000000000000600052602160045260246000fd5b613b6780620001026000396000f3fe608060405234801561001057600080fd5b506004361061010b5760003560e01c80638371a454116100a2578063babb1d4111610071578063babb1d41146102a9578063bbad68a6146102d9578063c2c32425146102f5578063c9047be714610311578063ca0cdea81461032f5761010b565b80638371a454146102235780638da5cb5b1461023f578063993746421461025d578063a33a2d801461028d5761010b565b80634c1da6a9116100de5780634c1da6a91461019f5780635d5dd13b146101bb5780635eed3dcb146101d75780636d26dce8146102075761010b565b80630869cfbc146101105780631e153acb14610149578063312b6d4d1461016557806348cfc77914610181575b600080fd5b61012a60048036038101906101259190612843565b610368565b6040516101409a9998979695949392919061292a565b60405180910390f35b610163600480360381019061015e9190612843565b610733565b005b61017f600480360381019061017a9190612843565b6109d8565b005b610189610b2b565b6040516101969190612aae565b60405180910390f35b6101b960048036038101906101b49190612843565b610bb9565b005b6101d560048036038101906101d09190612cf2565b610d0c565b005b6101f160048036038101906101ec9190612e2f565b61114d565b6040516101fe9190612e5c565b60405180910390f35b610221600480360381019061021c9190612e77565b61118c565b005b61023d60048036038101906102389190612fac565b611433565b005b610247611543565b6040516102549190612e5c565b60405180910390f35b61027760048036038101906102729190612843565b611567565b6040516102849190613063565b60405180910390f35b6102a760048036038101906102a29190612843565b611587565b005b6102c360048036038101906102be9190612e2f565b61182c565b6040516102d09190612e5c565b60405180910390f35b6102f360048036038101906102ee9190612843565b61186b565b005b61030f600480360381019061030a91906130a3565b6119be565b005b610319611c39565b6040516103269190613400565b60405180910390f35b61034960048036038101906103449190612843565b6123af565b60405161035f9a99989796959493929190613422565b60405180910390f35b60036020528060005260406000206000915090508060000160009054906101000a900473ffffffffffffffffffffffffffffffffffffffff16908060010180546103b190613509565b80601f01602080910402602001604051908101604052809291908181526020018280546103dd90613509565b801561042a5780601f106103ff5761010080835404028352916020019161042a565b820191906000526020600020905b81548152906001019060200180831161040d57829003601f168201915b50505050509080600201805461043f90613509565b80601f016020809104026020016040519081016040528092919081815260200182805461046b90613509565b80156104b85780601f1061048d576101008083540402835291602001916104b8565b820191906000526020600020905b81548152906001019060200180831161049b57829003601f168201915b5050505050908060030180546104cd90613509565b80601f01602080910402602001604051908101604052809291908181526020018280546104f990613509565b80156105465780601f1061051b57610100808354040283529160200191610546565b820191906000526020600020905b81548152906001019060200180831161052957829003601f168201915b50505050509080600401805461055b90613509565b80601f016020809104026020016040519081016040528092919081815260200182805461058790613509565b80156105d45780601f106105a9576101008083540402835291602001916105d4565b820191906000526020600020905b8154815290600101906020018083116105b757829003601f168201915b5050505050908060050180546105e990613509565b80601f016020809104026020016040519081016040528092919081815260200182805461061590613509565b80156106625780601f1061063757610100808354040283529160200191610662565b820191906000526020600020905b81548152906001019060200180831161064557829003601f168201915b5050505050908060060160009054906101000a900460ff16908060060160019054906101000a900460ff16908060060160029054906101000a900460ff16908060070180546106b090613509565b80601f01602080910402602001604051908101604052809291908181526020018280546106dc90613509565b80156107295780601f106106fe57610100808354040283529160200191610729565b820191906000526020600020905b81548152906001019060200180831161070c57829003601f168201915b505050505090508a565b60038081111561074657610745612fec565b5b600160003373ffffffffffffffffffffffffffffffffffffffff1673ffffffffffffffffffffffffffffffffffffffff16815260200190815260200160002060009054906101000a900460ff1660038111156107a5576107a4612fec565b5b146107e5576040517f08c379a00000000000000000000000000000000000000000000000000000000081526004016107dc90613586565b60405180910390fd5b600160038111156107f9576107f8612fec565b5b600160008373ffffffffffffffffffffffffffffffffffffffff1673ffffffffffffffffffffffffffffffffffffffff16815260200190815260200160002060009054906101000a900460ff16600381111561085857610857612fec565b5b036108bd576001600260008373ffffffffffffffffffffffffffffffffffffffff1673ffffffffffffffffffffffffffffffffffffffff16815260200190815260200160002060050160026101000a81548160ff021916908315150217905550610992565b600260038111156108d1576108d0612fec565b5b600160008373ffffffffffffffffffffffffffffffffffffffff1673ffffffffffffffffffffffffffffffffffffffff16815260200190815260200160002060009054906101000a900460ff1660038111156109305761092f612fec565b5b03610991576001600360008373ffffffffffffffffffffffffffffffffffffffff1673ffffffffffffffffffffffffffffffffffffffff16815260200190815260200160002060060160016101000a81548160ff0219169083151502179055505b5b8073ffffffffffffffffffffffffffffffffffffffff167f904d1985d199946aad94a6990736c4602adcc5b717b04d0436ed05446b07169d60405160405180910390a250565b6003808111156109eb576109ea612fec565b5b600160003373ffffffffffffffffffffffffffffffffffffffff1673ffffffffffffffffffffffffffffffffffffffff16815260200190815260200160002060009054906101000a900460ff166003811115610a4a57610a49612fec565b5b14610a8a576040517f08c379a0000000000000000000000000000000000000000000000000000000008152600401610a8190613586565b60405180910390fd5b6000600260008373ffffffffffffffffffffffffffffffffffffffff1673ffffffffffffffffffffffffffffffffffffffff16815260200190815260200160002060050160046101000a81548160ff0219169083151502179055508073ffffffffffffffffffffffffffffffffffffffff167ff2f9e1301b8fc7b02f69f6ec7d37d40ca019ddcb0a1ec4ea542256fba95cf69260405160405180910390a250565b60606004805480602002602001604051908101604052809291908181526020018280548015610baf57602002820191906000526020600020905b8160009054906101000a900473ffffffffffffffffffffffffffffffffffffffff1673ffffffffffffffffffffffffffffffffffffffff1681526020019060010190808311610b65575b5050505050905090565b600380811115610bcc57610bcb612fec565b5b600160003373ffffffffffffffffffffffffffffffffffffffff1673ffffffffffffffffffffffffffffffffffffffff16815260200190815260200160002060009054906101000a900460ff166003811115610c2b57610c2a612fec565b5b14610c6b576040517f08c379a0000000000000000000000000000000000000000000000000000000008152600401610c6290613586565b60405180910390fd5b6001600260008373ffffffffffffffffffffffffffffffffffffffff1673ffffffffffffffffffffffffffffffffffffffff16815260200190815260200160002060050160006101000a81548160ff0219169083151502179055508073ffffffffffffffffffffffffffffffffffffffff167f5d1f8ae728605f1c5a96c33df7ee3b56ded21030717a9f48200f94737da9fd2960405160405180910390a250565b6000855111610d50576040517f08c379a0000000000000000000000000000000000000000000000000000000008152600401610d47906135f2565b60405180910390fd5b6000845111610d94576040517f08c379a0000000000000000000000000000000000000000000000000000000008152600401610d8b9061365e565b60405180910390fd5b6000835111610dd8576040517f08c379a0000000000000000000000000000000000000000000000000000000008152600401610dcf906136f0565b60405180910390fd5b6000825111610e1c576040517f08c379a0000000000000000000000000000000000000000000000000000000008152600401610e139061375c565b60405180910390fd5b6040518061016001604052803373ffffffffffffffffffffffffffffffffffffffff16815260200186815260200185815260200184815260200183815260200160001515815260200160001515815260200160001515815260200160001515815260200160001515815260200182815250600260003373ffffffffffffffffffffffffffffffffffffffff1673ffffffffffffffffffffffffffffffffffffffff16815260200190815260200160002060008201518160000160006101000a81548173ffffffffffffffffffffffffffffffffffffffff021916908373ffffffffffffffffffffffffffffffffffffffff1602179055506020820151816001019081610f289190613928565b506040820151816002019081610f3e9190613928565b506060820151816003019080519060200190610f5b929190612684565b506080820151816004019081610f719190613928565b5060a08201518160050160006101000a81548160ff02191690831515021790555060c08201518160050160016101000a81548160ff02191690831515021790555060e08201518160050160026101000a81548160ff0219169083151502179055506101008201518160050160036101000a81548160ff0219169083151502179055506101208201518160050160046101000a81548160ff02191690831515021790555061014082015181600601908161102a9190613928565b5090505060018060003373ffffffffffffffffffffffffffffffffffffffff1673ffffffffffffffffffffffffffffffffffffffff16815260200190815260200160002060006101000a81548160ff021916908360038111156110905761108f612fec565b5b02179055506004339080600181540180825580915050600190039060005260206000200160009091909190916101000a81548173ffffffffffffffffffffffffffffffffffffffff021916908373ffffffffffffffffffffffffffffffffffffffff1602179055503373ffffffffffffffffffffffffffffffffffffffff167f6a9991a8fe1cf7533f37ab2eb2b4efa99b39cada60c37c5f54491532e165a2548460405161113e9190613a69565b60405180910390a25050505050565b6004818154811061115d57600080fd5b906000526020600020016000915054906101000a900473ffffffffffffffffffffffffffffffffffffffff1681565b6040518061014001604052803373ffffffffffffffffffffffffffffffffffffffff16815260200187815260200186815260200185815260200184815260200183815260200160001515815260200160001515815260200160001515815260200182815250600360003373ffffffffffffffffffffffffffffffffffffffff1673ffffffffffffffffffffffffffffffffffffffff16815260200190815260200160002060008201518160000160006101000a81548173ffffffffffffffffffffffffffffffffffffffff021916908373ffffffffffffffffffffffffffffffffffffffff160217905550602082015181600101908161128c9190613928565b5060408201518160020190816112a29190613928565b5060608201518160030190816112b89190613928565b5060808201518160040190816112ce9190613928565b5060a08201518160050190816112e49190613928565b5060c08201518160060160006101000a81548160ff02191690831515021790555060e08201518160060160016101000a81548160ff0219169083151502179055506101008201518160060160026101000a81548160ff02191690831515021790555061012082015181600701908161135c9190613928565b509050506002600160003373ffffffffffffffffffffffffffffffffffffffff1673ffffffffffffffffffffffffffffffffffffffff16815260200190815260200160002060006101000a81548160ff021916908360038111156113c3576113c2612fec565b5b02179055506005339080600181540180825580915050600190039060005260206000200160009091909190916101000a81548173ffffffffffffffffffffffffffffffffffffffff021916908373ffffffffffffffffffffffffffffffffffffffff160217905550505050505050565b60038081111561144657611445612fec565b5b600160003373ffffffffffffffffffffffffffffffffffffffff1673ffffffffffffffffffffffffffffffffffffffff16815260200190815260200160002060009054906101000a900460ff1660038111156114a5576114a4612fec565b5b146114e5576040517f08c379a00000000000000000000000000000000000000000000000000000000081526004016114dc90613586565b60405180910390fd5b8073ffffffffffffffffffffffffffffffffffffffff168273ffffffffffffffffffffffffffffffffffffffff167f3182b38841de065eded850f9e9fa30850bb37c3a57df9bef3841138a94b7295660405160405180910390a35050565b60008054906101000a900473ffffffffffffffffffffffffffffffffffffffff1681565b60016020528060005260406000206000915054906101000a900460ff1681565b60038081111561159a57611599612fec565b5b600160003373ffffffffffffffffffffffffffffffffffffffff1673ffffffffffffffffffffffffffffffffffffffff16815260200190815260200160002060009054906101000a900460ff1660038111156115f9576115f8612fec565b5b14611639576040517f08c379a000000000000000000000000000000000000000000000000000000000815260040161163090613586565b60405180910390fd5b6001600381111561164d5761164c612fec565b5b600160008373ffffffffffffffffffffffffffffffffffffffff1673ffffffffffffffffffffffffffffffffffffffff16815260200190815260200160002060009054906101000a900460ff1660038111156116ac576116ab612fec565b5b03611711576001600260008373ffffffffffffffffffffffffffffffffffffffff1673ffffffffffffffffffffffffffffffffffffffff16815260200190815260200160002060050160036101000a81548160ff0219169083151502179055506117e6565b6002600381111561172557611724612fec565b5b600160008373ffffffffffffffffffffffffffffffffffffffff1673ffffffffffffffffffffffffffffffffffffffff16815260200190815260200160002060009054906101000a900460ff16600381111561178457611783612fec565b5b036117e5576001600360008373ffffffffffffffffffffffffffffffffffffffff1673ffffffffffffffffffffffffffffffffffffffff16815260200190815260200160002060060160026101000a81548160ff0219169083151502179055505b5b8073ffffffffffffffffffffffffffffffffffffffff167faea35fc9a27361aba75788b01d0206dbe6018a2061ba0c177d99b2b18dd3728960405160405180910390a250565b6005818154811061183c57600080fd5b906000526020600020016000915054906101000a900473ffffffffffffffffffffffffffffffffffffffff1681565b60038081111561187e5761187d612fec565b5b600160003373ffffffffffffffffffffffffffffffffffffffff1673ffffffffffffffffffffffffffffffffffffffff16815260200190815260200160002060009054906101000a900460ff1660038111156118dd576118dc612fec565b5b1461191d576040517f08c379a000000000000000000000000000000000000000000000000000000000815260040161191490613586565b60405180910390fd5b6001600260008373ffffffffffffffffffffffffffffffffffffffff1673ffffffffffffffffffffffffffffffffffffffff16815260200190815260200160002060050160046101000a81548160ff0219169083151502179055508073ffffffffffffffffffffffffffffffffffffffff167fd3246ded9638f3a0c0ba5c93a9a153d20c9176e5c705e1e0a3f7e92e0cb0500b60405160405180910390a250565b6003808111156119d1576119d0612fec565b5b600160003373ffffffffffffffffffffffffffffffffffffffff1673ffffffffffffffffffffffffffffffffffffffff16815260200190815260200160002060009054906101000a900460ff166003811115611a3057611a2f612fec565b5b14611a70576040517f08c379a0000000000000000000000000000000000000000000000000000000008152600401611a6790613586565b60405180910390fd5b80600160008473ffffffffffffffffffffffffffffffffffffffff1673ffffffffffffffffffffffffffffffffffffffff16815260200190815260200160002060006101000a81548160ff02191690836003811115611ad257611ad1612fec565b5b021790555060016003811115611aeb57611aea612fec565b5b816003811115611afe57611afd612fec565b5b03611b5f576001600260008473ffffffffffffffffffffffffffffffffffffffff1673ffffffffffffffffffffffffffffffffffffffff16815260200190815260200160002060050160016101000a81548160ff0219169083151502179055505b60026003811115611b7357611b72612fec565b5b816003811115611b8657611b85612fec565b5b03611be7576001600360008473ffffffffffffffffffffffffffffffffffffffff1673ffffffffffffffffffffffffffffffffffffffff16815260200190815260200160002060060160006101000a81548160ff0219169083151502179055505b8173ffffffffffffffffffffffffffffffffffffffff167f3e60282061aa9f0ac8f17cb522ab49946225e94f8597d84e6504593ee06a81e082604051611c2d9190613063565b60405180910390a25050565b60606000805b600480549050811015611d98576002600060048381548110611c6457611c63613a8b565b5b9060005260206000200160009054906101000a900473ffffffffffffffffffffffffffffffffffffffff1673ffffffffffffffffffffffffffffffffffffffff1673ffffffffffffffffffffffffffffffffffffffff16815260200190815260200160002060050160009054906101000a900460ff16158015611d7157506002600060048381548110611cfa57611cf9613a8b565b5b9060005260206000200160009054906101000a900473ffffffffffffffffffffffffffffffffffffffff1673ffffffffffffffffffffffffffffffffffffffff1673ffffffffffffffffffffffffffffffffffffffff16815260200190815260200160002060050160019054906101000a900460ff165b15611d85578180611d8190613ae9565b9250505b8080611d9090613ae9565b915050611c3f565b5060008167ffffffffffffffff811115611db557611db4612ada565b5b604051908082528060200260200182016040528015611dee57816020015b611ddb61273a565b815260200190600190039081611dd35790505b5090506000805b6004805490508110156123a5576002600060048381548110611e1a57611e19613a8b565b5b9060005260206000200160009054906101000a900473ffffffffffffffffffffffffffffffffffffffff1673ffffffffffffffffffffffffffffffffffffffff1673ffffffffffffffffffffffffffffffffffffffff16815260200190815260200160002060050160009054906101000a900460ff16158015611f2757506002600060048381548110611eb057611eaf613a8b565b5b9060005260206000200160009054906101000a900473ffffffffffffffffffffffffffffffffffffffff1673ffffffffffffffffffffffffffffffffffffffff1673ffffffffffffffffffffffffffffffffffffffff16815260200190815260200160002060050160019054906101000a900460ff165b15612392576002600060048381548110611f4457611f43613a8b565b5b9060005260206000200160009054906101000a900473ffffffffffffffffffffffffffffffffffffffff1673ffffffffffffffffffffffffffffffffffffffff1673ffffffffffffffffffffffffffffffffffffffff168152602001908152602001600020604051806101600160405290816000820160009054906101000a900473ffffffffffffffffffffffffffffffffffffffff1673ffffffffffffffffffffffffffffffffffffffff1673ffffffffffffffffffffffffffffffffffffffff16815260200160018201805461201b90613509565b80601f016020809104026020016040519081016040528092919081815260200182805461204790613509565b80156120945780601f1061206957610100808354040283529160200191612094565b820191906000526020600020905b81548152906001019060200180831161207757829003601f168201915b505050505081526020016002820180546120ad90613509565b80601f01602080910402602001604051908101604052809291908181526020018280546120d990613509565b80156121265780601f106120fb57610100808354040283529160200191612126565b820191906000526020600020905b81548152906001019060200180831161210957829003601f168201915b50505050508152602001600382018054806020026020016040519081016040528092919081815260200182805480156121b357602002820191906000526020600020906000905b82829054906101000a900460ff16600481111561218d5761218c612fec565b5b8152602001906001019060208260000104928301926001038202915080841161216d5790505b505050505081526020016004820180546121cc90613509565b80601f01602080910402602001604051908101604052809291908181526020018280546121f890613509565b80156122455780601f1061221a57610100808354040283529160200191612245565b820191906000526020600020905b81548152906001019060200180831161222857829003601f168201915b505050505081526020016005820160009054906101000a900460ff161515151581526020016005820160019054906101000a900460ff161515151581526020016005820160029054906101000a900460ff161515151581526020016005820160039054906101000a900460ff161515151581526020016005820160049054906101000a900460ff161515151581526020016006820180546122e590613509565b80601f016020809104026020016040519081016040528092919081815260200182805461231190613509565b801561235e5780601f106123335761010080835404028352916020019161235e565b820191906000526020600020905b81548152906001019060200180831161234157829003601f168201915b50505050508152505083838061237390613ae9565b94508151811061238657612385613a8b565b5b60200260200101819052505b808061239d90613ae9565b915050611df5565b5081935050505090565b60026020528060005260406000206000915090508060000160009054906101000a900473ffffffffffffffffffffffffffffffffffffffff16908060010180546123f890613509565b80601f016020809104026020016040519081016040528092919081815260200182805461242490613509565b80156124715780601f1061244657610100808354040283529160200191612471565b820191906000526020600020905b81548152906001019060200180831161245457829003601f168201915b50505050509080600201805461248690613509565b80601f01602080910402602001604051908101604052809291908181526020018280546124b290613509565b80156124ff5780601f106124d4576101008083540402835291602001916124ff565b820191906000526020600020905b8154815290600101906020018083116124e257829003601f168201915b50505050509080600401805461251490613509565b80601f016020809104026020016040519081016040528092919081815260200182805461254090613509565b801561258d5780601f106125625761010080835404028352916020019161258d565b820191906000526020600020905b81548152906001019060200180831161257057829003601f168201915b5050505050908060050160009054906101000a900460ff16908060050160019054906101000a900460ff16908060050160029054906101000a900460ff16908060050160039054906101000a900460ff16908060050160049054906101000a900460ff169080600601805461260190613509565b80601f016020809104026020016040519081016040528092919081815260200182805461262d90613509565b801561267a5780601f1061264f5761010080835404028352916020019161267a565b820191906000526020600020905b81548152906001019060200180831161265d57829003601f168201915b505050505090508a565b82805482825590600052602060002090601f016020900481019282156127295791602002820160005b838211156126fa57835183826101000a81548160ff021916908360048111156126d9576126d8612fec565b5b021790555092602001926001016020816000010492830192600103026126ad565b80156127275782816101000a81549060ff02191690556001016020816000010492830192600103026126fa565b505b50905061273691906127b4565b5090565b604051806101600160405280600073ffffffffffffffffffffffffffffffffffffffff16815260200160608152602001606081526020016060815260200160608152602001600015158152602001600015158152602001600015158152602001600015158152602001600015158152602001606081525090565b5b808211156127cd5760008160009055506001016127b5565b5090565b6000604051905090565b600080fd5b600080fd5b600073ffffffffffffffffffffffffffffffffffffffff82169050919050565b6000612810826127e5565b9050919050565b61282081612805565b811461282b57600080fd5b50565b60008135905061283d81612817565b92915050565b600060208284031215612859576128586127db565b5b60006128678482850161282e565b91505092915050565b61287981612805565b82525050565b600081519050919050565b600082825260208201905092915050565b60005b838110156128b957808201518184015260208101905061289e565b60008484015250505050565b6000601f19601f8301169050919050565b60006128e18261287f565b6128eb818561288a565b93506128fb81856020860161289b565b612904816128c5565b840191505092915050565b60008115159050919050565b6129248161290f565b82525050565b600061014082019050612940600083018d612870565b8181036020830152612952818c6128d6565b90508181036040830152612966818b6128d6565b9050818103606083015261297a818a6128d6565b9050818103608083015261298e81896128d6565b905081810360a08301526129a281886128d6565b90506129b160c083018761291b565b6129be60e083018661291b565b6129cc61010083018561291b565b8181036101208301526129df81846128d6565b90509b9a5050505050505050505050565b600081519050919050565b600082825260208201905092915050565b6000819050602082019050919050565b612a2581612805565b82525050565b6000612a378383612a1c565b60208301905092915050565b6000602082019050919050565b6000612a5b826129f0565b612a6581856129fb565b9350612a7083612a0c565b8060005b83811015612aa1578151612a888882612a2b565b9750612a9383612a43565b925050600181019050612a74565b5085935050505092915050565b60006020820190508181036000830152612ac88184612a50565b905092915050565b600080fd5b600080fd5b7f4e487b7100000000000000000000000000000000000000000000000000000000600052604160045260246000fd5b612b12826128c5565b810181811067ffffffffffffffff82111715612b3157612b30612ada565b5b80604052505050565b6000612b446127d1565b9050612b508282612b09565b919050565b600067ffffffffffffffff821115612b7057612b6f612ada565b5b612b79826128c5565b9050602081019050919050565b82818337600083830152505050565b6000612ba8612ba384612b55565b612b3a565b905082815260208101848484011115612bc457612bc3612ad5565b5b612bcf848285612b86565b509392505050565b600082601f830112612bec57612beb612ad0565b5b8135612bfc848260208601612b95565b91505092915050565b600067ffffffffffffffff821115612c2057612c1f612ada565b5b602082029050602081019050919050565b600080fd5b60058110612c4357600080fd5b50565b600081359050612c5581612c36565b92915050565b6000612c6e612c6984612c05565b612b3a565b90508083825260208201905060208402830185811115612c9157612c90612c31565b5b835b81811015612cba5780612ca68882612c46565b845260208401935050602081019050612c93565b5050509392505050565b600082601f830112612cd957612cd8612ad0565b5b8135612ce9848260208601612c5b565b91505092915050565b600080600080600060a08688031215612d0e57612d0d6127db565b5b600086013567ffffffffffffffff811115612d2c57612d2b6127e0565b5b612d3888828901612bd7565b955050602086013567ffffffffffffffff811115612d5957612d586127e0565b5b612d6588828901612bd7565b945050604086013567ffffffffffffffff811115612d8657612d856127e0565b5b612d9288828901612cc4565b935050606086013567ffffffffffffffff811115612db357612db26127e0565b5b612dbf88828901612bd7565b925050608086013567ffffffffffffffff811115612de057612ddf6127e0565b5b612dec88828901612bd7565b9150509295509295909350565b6000819050919050565b612e0c81612df9565b8114612e1757600080fd5b50565b600081359050612e2981612e03565b92915050565b600060208284031215612e4557612e446127db565b5b6000612e5384828501612e1a565b91505092915050565b6000602082019050612e716000830184612870565b92915050565b60008060008060008060c08789031215612e9457612e936127db565b5b600087013567ffffffffffffffff811115612eb257612eb16127e0565b5b612ebe89828a01612bd7565b965050602087013567ffffffffffffffff811115612edf57612ede6127e0565b5b612eeb89828a01612bd7565b955050604087013567ffffffffffffffff811115612f0c57612f0b6127e0565b5b612f1889828a01612bd7565b945050606087013567ffffffffffffffff811115612f3957612f386127e0565b5b612f4589828a01612bd7565b935050608087013567ffffffffffffffff811115612f6657612f656127e0565b5b612f7289828a01612bd7565b92505060a087013567ffffffffffffffff811115612f9357612f926127e0565b5b612f9f89828a01612bd7565b9150509295509295509295565b60008060408385031215612fc357612fc26127db565b5b6000612fd18582860161282e565b9250506020612fe28582860161282e565b9150509250929050565b7f4e487b7100000000000000000000000000000000000000000000000000000000600052602160045260246000fd5b6004811061302c5761302b612fec565b5b50565b600081905061303d8261301b565b919050565b600061304d8261302f565b9050919050565b61305d81613042565b82525050565b60006020820190506130786000830184613054565b92915050565b6004811061308b57600080fd5b50565b60008135905061309d8161307e565b92915050565b600080604083850312156130ba576130b96127db565b5b60006130c88582860161282e565b92505060206130d98582860161308e565b9150509250929050565b600081519050919050565b600082825260208201905092915050565b6000819050602082019050919050565b600082825260208201905092915050565b600061312b8261287f565b613135818561310f565b935061314581856020860161289b565b61314e816128c5565b840191505092915050565b600081519050919050565b600082825260208201905092915050565b6000819050602082019050919050565b6005811061319657613195612fec565b5b50565b60008190506131a782613185565b919050565b60006131b782613199565b9050919050565b6131c7816131ac565b82525050565b60006131d983836131be565b60208301905092915050565b6000602082019050919050565b60006131fd82613159565b6132078185613164565b935061321283613175565b8060005b8381101561324357815161322a88826131cd565b9750613235836131e5565b925050600181019050613216565b5085935050505092915050565b6132598161290f565b82525050565b6000610160830160008301516132786000860182612a1c565b50602083015184820360208601526132908282613120565b915050604083015184820360408601526132aa8282613120565b915050606083015184820360608601526132c482826131f2565b915050608083015184820360808601526132de8282613120565b91505060a08301516132f360a0860182613250565b5060c083015161330660c0860182613250565b5060e083015161331960e0860182613250565b5061010083015161332e610100860182613250565b50610120830151613343610120860182613250565b5061014083015184820361014086015261335d8282613120565b9150508091505092915050565b6000613376838361325f565b905092915050565b6000602082019050919050565b6000613396826130e3565b6133a081856130ee565b9350836020820285016133b2856130ff565b8060005b858110156133ee57848403895281516133cf858261336a565b94506133da8361337e565b925060208a019950506001810190506133b6565b50829750879550505050505092915050565b6000602082019050818103600083015261341a818461338b565b905092915050565b600061014082019050613438600083018d612870565b818103602083015261344a818c6128d6565b9050818103604083015261345e818b6128d6565b90508181036060830152613472818a6128d6565b9050613481608083018961291b565b61348e60a083018861291b565b61349b60c083018761291b565b6134a860e083018661291b565b6134b661010083018561291b565b8181036101208301526134c981846128d6565b90509b9a5050505050505050505050565b7f4e487b7100000000000000000000000000000000000000000000000000000000600052602260045260246000fd5b6000600282049050600182168061352157607f821691505b602082108103613534576135336134da565b5b50919050565b7f4f6e6c792061646d696e00000000000000000000000000000000000000000000600082015250565b6000613570600a8361288a565b915061357b8261353a565b602082019050919050565b6000602082019050818103600083015261359f81613563565b9050919050565b7f4e616d6520697320726571756972656400000000000000000000000000000000600082015250565b60006135dc60108361288a565b91506135e7826135a6565b602082019050919050565b6000602082019050818103600083015261360b816135cf565b9050919050565b7f426c6f6f64207479706520697320726571756972656400000000000000000000600082015250565b600061364860168361288a565b915061365382613612565b602082019050919050565b600060208201905081810360008301526136778161363b565b9050919050565b7f4174206c65617374206f6e65206f7267616e206d75737420626520737065636960008201527f6669656400000000000000000000000000000000000000000000000000000000602082015250565b60006136da60248361288a565b91506136e58261367e565b604082019050919050565b60006020820190508181036000830152613709816136cd565b9050919050565b7f4c6f636174696f6e206973207265717569726564000000000000000000000000600082015250565b600061374660148361288a565b915061375182613710565b602082019050919050565b6000602082019050818103600083015261377581613739565b9050919050565b60008190508160005260206000209050919050565b60006020601f8301049050919050565b600082821b905092915050565b6000600883026137de7fffffffffffffffffffffffffffffffffffffffffffffffffffffffffffffffff826137a1565b6137e886836137a1565b95508019841693508086168417925050509392505050565b6000819050919050565b600061382561382061381b84612df9565b613800565b612df9565b9050919050565b6000819050919050565b61383f8361380a565b61385361384b8261382c565b8484546137ae565b825550505050565b600090565b61386861385b565b613873818484613836565b505050565b5b818110156138975761388c600082613860565b600181019050613879565b5050565b601f8211156138dc576138ad8161377c565b6138b684613791565b810160208510156138c5578190505b6138d96138d185613791565b830182613878565b50505b505050565b600082821c905092915050565b60006138ff600019846008026138e1565b1980831691505092915050565b600061391883836138ee565b9150826002028217905092915050565b6139318261287f565b67ffffffffffffffff81111561394a57613949612ada565b5b6139548254613509565b61395f82828561389b565b600060209050601f8311600181146139925760008415613980578287015190505b61398a858261390c565b8655506139f2565b601f1984166139a08661377c565b60005b828110156139c8578489015182556001820191506020850194506020810190506139a3565b868310156139e557848901516139e1601f8916826138ee565b8355505b6001600288020188555050505b505050505050565b600082825260208201905092915050565b6000613a1682613159565b613a2081856139fa565b9350613a2b83613175565b8060005b83811015613a5c578151613a4388826131cd565b9750613a4e836131e5565b925050600181019050613a2f565b5085935050505092915050565b60006020820190508181036000830152613a838184613a0b565b905092915050565b7f4e487b7100000000000000000000000000000000000000000000000000000000600052603260045260246000fd5b7f4e487b7100000000000000000000000000000000000000000000000000000000600052601160045260246000fd5b6000613af482612df9565b91507fffffffffffffffffffffffffffffffffffffffffffffffffffffffffffffffff8203613b2657613b25613aba565b5b60018201905091905056fea26469706673582212208a4228d4435438a107f7b4a1142bc49f1a43ac8f88a340dfa3b0845998de48f964736f6c63430008140033",
  "linkReferences": {},
  "deployedLinkReferences": {}
}